:100200000C9451010C9479010C9479010C947901AE
:100210000C9479010C9479010C9479010C94790176
:100220000C9479010C9479010C9479010C94790166
:100230000C9479010C9479010C9479010C94790156
:100240000C9479010C9479010C9479010C94790146
:100250000C9479010C9479010C9479010C94790136
:100260000C9479010C9479010C9479010C94790126
:100270000C9479010C9479010C9479010C94790116
:100280000C9479010C9479010C9479010C94790106
:100290000C94280B0C94B20B0C948C0B0C947901DD
:1002A000FB0B11241FBECFEFCDBFDFE3DEBF18E293
:1002B000A0E0B8E2E6E9F6E202C005900D92AE30A9
:1002C000B107D9F729E2AEE0B8E201C01D92A33828
:1002D000B207E1F711E0C1E5D1E004C02197FE01CA
:1002E0000E94BF0FC035D107C9F70E942D0D0C9495
:1002F00061120C9400010895EF92FF920F931F93E7
:10030000CF93DF937C01EB018B01040F151FC01706
:10031000D10759F0D701ED91FC910480F581E02DD2
:100320006881C70109958993F2CFDF91CF911F9121
:100330000F91FF90EF9008950F931F93CF93DF934A
:10034000EC018B018091C008E881F9810480F5817E
:10035000E02D86FD13C0612FCE010995182FE8818D
:10036000F9810480F581E02D602FCE010995082FD9
:10037000C801DF91CF911F910F910895CE0109958A
:10038000082FE881F9810480F581E02D612FCE01ED
:100390000995182FEDCF00006093C4088091C30821
:1003A00087FFFCCF8091C40808958F929F92AF92EF
:1003B000BF92CF92DF92EF92FF920F931F93CF9352
:1003C000DF93FC018085882319F081FF0EC07894AB
:1003D000DF91CF911F910F91FF90EF90DF90CF9021
:1003E000BF90AF909F908F90089580FFF1CF82844F
:1003F0009384A484B584C12CD12C760110E094019F
:10040000A501B601C701A0E00E94B30F99F12170C8
:1004100030E040E050E060E070E080E090E00E947A
:10042000B30FD9F0D0E0C0E0103370F4C12FC695FF
:10043000C695C69580E2C89FE0011124C05FDB4FDE
:10044000812F8770C80FD11DCF01810F911DDC0155
:1004500052968C919881892B88839401A501B601CD
:10046000C70101E00E94980F49015A016B017C010C
:100470001F5FC5CF86849784A088B188C12CD12CFA
:10048000760110E29401A501B601C701A0E00E9427
:10049000B30F09F49DCF217030E040E050E060E000
:1004A00070E080E090E00E94B30FD9F0D0E0C0E0AF
:1004B000103370F4C12FC695C695C695B0E2CB9F98
:1004C000E0011124C05FDB4F812F8770C80FD11D61
:1004D000CF01810F911DDC0152968C919881892B5F
:1004E00088839401A501B601C70101E00E94980F1D
:1004F00049015A016B017C011F5FC4CFFC016F3FB2
:10050000710581F1808581FD2DC0603271055CF53A
:1005100081E090E002C0880F991F6A95E2F780950C
:100520009095092E000CAA0BBB0B42855385648560
:10053000758584239523A623B72382879387A48771
:10054000B58782859385A485B585892B8A2B8B2BCE
:1005500049F486859785A089B189892B8A2B8B2BB5
:1005600009F4108608956052710981E090E002C09C
:10057000880F991F6A95E2F780959095092E000CD7
:10058000AA0BBB0B46855785608971898423952307
:10059000A623B72386879787A08BB18BD2CFFC0188
:1005A0006F3F7105E9F1603371051CF082E08087CF
:1005B000089580858160808760327105C4F481E090
:1005C00090E002C0880F991F6A95E2F7092E000C8F
:1005D000AA0BBB0B4285538564857585842B952BAF
:1005E000A62BB72B82879387A487B587089560527F
:1005F000710981E090E002C0880F991F6A95E2F7C7
:10060000092E000CAA0BBB0B4685578560897189A2
:10061000842B952BA62BB72B86879787A08BB18B26
:100620000895E0ECF8E020812E7F2083FC01178202
:100630000895E0ECF8E082818E7F82830895E0ECFB
:10064000F8E08281816082830895FC0154894589A4
:10065000252F30E0842F90E0821B930B541710F06D
:10066000CF96089501970895FC0192898389981780
:1006700061F0A389AE0FBF2FB11D59968C9193895C
:100680009F5F9F73938B90E008958FEF9FEF089586
:10069000FC0192898389981731F08389E80FF11D55
:1006A000818D90E008958FEF9FEF0895FC0192896E
:1006B0002389892F90E0805C9F4F821B91098F7363
:1006C00099270895CF93DF93EC01E881F9810680A3
:1006D000F781E02D0995EC85FD8586818F738683F2
:1006E000EC85FD8585818F7585838B898A8B198A39
:1006F000DF91CF910895CF93DF93FC019489858991
:10070000C485D585981306C08D818F7D8D83DF913B
:10071000CF910895A589AE0FBF2FB11DA75ABF4F26
:100720002C91858990E001968F739927858B80E4C1
:100730008C83A485B58512962C939489858998130A
:10074000E6CFA485B58515968C9115978F7D159666
:100750008C9387898823D9F2808D80931301178A1F
:10076000D6CFDC011C96ED91FC910FB607FE03C0BD
:10077000258125FD04C0248125FD0C947B0308956B
:10078000EF92FF920F931F93CF93DF93EC0181E0E1
:10079000898B9C898D8998131CC0AC85BD85149666
:1007A0008C91149785FF15C012966C93AC85BD850E
:1007B00080E414968C93EC85FD8585818F7D8583FF
:1007C00081E090E0DF91CF911F910F91FF90EF902A
:1007D00008958091110180FF08C080911301888FD6
:1007E0008E898093130181E08F8BF62E0C8910E0A7
:1007F0000F5F1F4F0F731127E02E8D898E1104C0DC
:10080000CE010E94B103F9CFEC89EC0FFD2FF11D51
:10081000E75AFF4FF0820C8BEC85FD858581806265
:10082000CECFCF93DF93FC0121892223C9F0EC01C5
:100830008091110180FF08C080911301808F86890B
:100840008093130181E0878BEC85FD85858185FD93
:1008500003C0848186FD04C0CE010E94B103F4CFA1
:10086000DF91CF910895CF93DF9390E0FC01EF5B90
:10087000FA4920812F3F71F0FC01E85EFA49A0811E
:1008800030E2A39FD0011124BC5F6130710529F4CF
:1008900011962C93DF91CF91089581519B49EC01E2
:1008A000E881EF3F89F0CD014096E80FF92FF11D67
:1008B0009FB7F89412962C9380816230710539F4B9
:1008C000886080839FBFE6CFF0E0E0E0F1CF877FD4
:1008D000F8CF282F30E0F901EA53FB49E081EE23FD
:1008E00009F1E13021F0F0F0E63098F00895409100
:1008F000010A21513B49F90120812C5F81E090E000
:1009000001C0880F2A95EAF7809584238093010A15
:10091000089580E1E89FF0011124E05AF54F8181AC
:100920008F7E81830895FF920F931F93CF93DF9360
:10093000082F10E0F801EF5BFA49F0809FEFF916FD
:10094000A1F0EB01893210F40E946904F801E85E1D
:10095000FA49E08180E2E89FF0011124FC5F808188
:100960008F2159F0CD2B39F4F682DF91CF911F9171
:100970000F91FF900895F582F8CFD801A151BB499E
:100980008C91309771F08F3F61F07096E80FF11DF8
:100990009FB7F8948081CD2B39F4877F80839FBFE8
:1009A000E4CFF0E0E0E0F4CF8860F8CF0F931F933E
:1009B000CF93082F10E0F801EF5BFA49C081CF3FD9
:1009C000B9F0893210F40E946904F801E85EFA492E
:1009D000E08180E2E89FF0011124FC5F8085C8235C
:1009E00081E090E009F480E0CF911F910F9108958C
:1009F00080E090E0F9CF893210F40C9493040895CC
:100A00000F931F93CF93DF93D82FC62F809109297F
:100A100090910A29009709F44DC0DC01ED91FC91F9
:100A20000684F785E02D009110291091112920915D
:100A30001229309113294091142950911529609160
:100A4000162970911729099570E060E080910C29B2
:100A50000E94FB048091092990910A29DC01ED9103
:100A6000FC910480F581E02D6D2F09958091092975
:100A700090910A29DC01ED91FC910480F581E02D33
:100A80006C2F099561E070E080910C290E94FB04B5
:100A90008091092990910A29DC01ED91FC9100884F
:100AA000F189E02D099581E090E0DF91CF911F91D0
:100AB0000F9108958091072990910829DC01ED910B
:100AC000FC910688F789E02D60910B2909958091AA
:100AD000072990910829DC01ED91FC910190F081AA
:100AE000E02D6D2F09958091072990910829DC014F
:100AF000ED91FC910190F081E02D6C2F0995809192
:100B0000072990910829DC01ED91FC91028CF38D6D
:100B1000E02D099521E090E0811120E0822FC5CFE2
:100B2000893210F40C94330408958091092990912E
:100B30000A29009799F0DC01ED91FC91008CF18D70
:100B4000E02D099570E060E080910C290E94FB0483
:100B500070E060E080910C290C94900560E081E1E8
:100B60000E94000560E080E10E9400058091072955
:100B700090910829DC01ED91FC910288F389E02D28
:100B80000994CF92DF92EF92FF920F931F93CF932E
:100B9000DF93EC016A017B01022F8989882339F0F8
:100BA000E881F9810288F389E02DCE0109959889C1
:100BB0008091E205892B8093E2051FB7F89460E0ED
:100BC00070E281EA97E0A70196010E94420F690155
:100BD0007A018FEFC81AD80AE80AF80AF694E7945F
:100BE000D794C794EC85FD8586818D7F8683EC85BF
:100BF000FD8586818683198AA09123110A2E000C17
:100C0000BB0BA70196010E948E0F20E034E040E06C
:100C100050E00E94640FEC85FD85C20ED31EE41ED9
:100C2000F51EC086D186EC85FD850783EC85FD85A4
:100C30008681806C8683EC85FD85858180688583CF
:100C40008E8562E070E00E9490058F8561E070E023
:100C50000E94FB048F8561E070E00E9490051FBF39
:100C6000DF91CF911F910F91FF90EF90DF90CF9088
:100C70000895CF93DF938FB7F89420911C2830917B
:100C80001D2840911E2850911F28E091BA0A90918A
:100C9000B60A90FF06C02F5F3F4F4F4F5F4FE09166
:100CA000BA0A8FBFA0911A28B0911B28C0911828AA
:100CB000D09119280E94830FEC9F9001ED9F300D79
:100CC0001124620F731F811D911DDF91CF91089533
:100CD000CF92DF92EF92FF920E9439066B017C0166
:100CE00020EAC20E26E8D21E21E0E21EF11C80EAB4
:100CF000C81686E8D80681E0E806F10438F40E94B8
:100D00003906C616D706E806F906C8F30E94390662
:100D10006C157D058E059F05C8F3FF90EF90DF9061
:100D2000CF900895AF92BF92CF92DF92EF92FF9251
:100D30000F931F93CF93DF936C017B018B01040F03
:100D4000151FEB015E01AE18BF08C017D10759F09F
:100D50006991D601ED91FC910190F081E02DC601E1
:100D60000995892B79F7C501DF91CF911F910F91DB
:100D7000FF90EF90DF90CF90BF90AF90089581E00B
:100D80000895AF92BF92CF92DF92EF92FF920F93AE
:100D90001F93CF93DF93EC01D62E5A0179018C81FA
:100DA0009D81009709F445C0DC01ED91FC9106841A
:100DB000F785E02D0B851C852D853E854F8558894F
:100DC00069897A89099570E060E08F810E94FB044F
:100DD0008C819D816D2D6068DC01ED91FC9104801A
:100DE000F581E02D09958C819D81DC01ED91FC91CF
:100DF0000084F185E02DA701B501099561E070E05F
:100E00008F810E94FB048C819D81DC01ED91FC911E
:100E10000088F189E02D099581E090E0DF91CF9184
:100E20001F910F91FF90EF90DF90CF90BF90AF9008
:100E300008958A819B81DC01ED91FC910688F789F8
:100E4000E02D6E8109958A819B81DC01ED91FC91F9
:100E50000190F081E02D6D2D09958A819B81DC0147
:100E6000ED91FC91008CF18DE02D60E009958111F0
:100E700022C08A819B81DC01ED91FC91068CF78D6B
:100E8000E02DA7016E8109958E159F05B9F46501C6
:100E90008A819B81DC01ED91FC910284F385E02D38
:100EA0000995F60181936F01CF018A199B098E156F
:100EB0009F0570F3B1CF8FEF9FEFB0CF90E080E050
:100EC000ADCFCF93DF931F92CDB7DEB721E030E0F7
:100ED000AE014F5F5F4F0E94C106019731F48981D7
:100EE00090E00F90DF91CF9108958FEF9FEFF9CFB2
:100EF00060E070E080E592E408956EE10E94610791
:100F000082FB882780F990E008950F931F93CF9379
:100F1000DF9300D0CDB7DEB78B0122E030E0AE0129
:100F20004F5F5F4F60E20E94C106009781F440E08E
:100F300050E060EC7FE7F801408351836283738364
:100F40000F900F90DF91CF911F910F9108956981BC
:100F50007A81072E000C880B990B0E94431020E029
:100F600030E040E85DE30E94CF1020E030E048EC44
:100F700051E40E94D50FF8016083718382839383CB
:100F800081E090E0DDCF60E070E080ED92E40895D4
:100F90006EE10E9461078695817090E00895CF927E
:100FA000DF92EF92FF920F931F93CF93DF93CDB712
:100FB000DEB72697CDBFDEBF6B017A01890126E03F
:100FC00030E0AE014F5F5F4F62E20E94C1060097C2
:100FD000F9F440E050E060EC7FE7F6014083518394
:100FE00062837383F7014083518362837383F801C3
:100FF00040835183628373832696CDBFDEBFDF912A
:10100000CF911F910F91FF90EF90DF90CF900895B7
:1010100069817A81072E000C880B990B0E9443107E
:1010200020E030E04AEF54E40E94CF1020E030E0AE
:1010300040E058E30E94CF10F60160837183828301
:1010400093836B817C81072E000C880B990B0E9487
:10105000431020E030E04AEF54E40E94CF1020E03B
:1010600030E040E058E30E94CF10F70160837183C5
:10107000828393836D817E81072E000C880B990BF0
:101080000E94431020E030E04AEF54E40E94CF1069
:1010900020E030E040E058E30E94CF10F801608388
:1010A00071838283938381E090E0A6CF6EE10E94FA
:1010B0006107817099270895CF92DF92EF92FF9296
:1010C0000F931F93CF93DF93CDB7DEB72697CDBF96
:1010D000DEBF6B017A01890126E030E0AE014F5F8F
:1010E0005F4F68E20E94C1060097F9F440E050E0CB
:1010F00060EC7FE7F6014083518362837383F701DD
:101100004083518362837383F801408351836283F8
:1011100073832696CDBFDEBFDF91CF911F910F91D4
:10112000FF90EF90DF90CF90089569817A81072E2C
:10113000000C880B990B0E94431020E030E040E83F
:1011400050E40E94CF1020E030E040E058E30E94DD
:10115000CF10F60160837183828393836B817C81DE
:10116000072E000C880B990B0E94431020E030E002
:1011700040E850E40E94CF1020E030E040E058E327
:101180000E94CF10F70160837183828393836D8106
:101190007E81072E000C880B990B0E94431020E0E3
:1011A00030E040E850E40E94CF1020E030E040E022
:1011B00058E30E94CF10F801608371838283938388
:1011C00081E090E0A6CF0895DC01ED91FC910088CC
:1011D000F189E02D23E030E00994FC01019000202A
:1011E000E9F73197AF01481B590BBC0188E298E23F
:1011F0000C949206CF93DF930E94ED08EC018CEBE8
:1012000095E60E94ED088C0F9D1FDF91CF91089508
:101210000C94D8110C94D8110F931F93CF93DF9394
:10122000CDB7DEB72597CDBFDEBF660F660F6A5F0D
:1012300069831A825B832C833D83DC0111960D91B7
:101240001C91F80184819581059738F18181928103
:10125000DC01ED91FC910688F789E02DD8016C91B5
:101260000995F80181819281DC01ED91FC91028068
:10127000F381E02D45E050E0BE016F5F7F4F09959F
:10128000059759F4F80181819281DC01ED91FC917F
:10129000008CF18DE02D61E009952596CDBFDEBF74
:1012A000DF91CF911F910F910895FC0180E1689F1C
:1012B000900111248381948150E040E06081CB96BD
:1012C0000C940C090F931F93CF938C01C62F8FEBB7
:1012D00095E60E94ED080E9468060130110581F430
:1012E000C09305286C2F80911829909119290E948C
:1012F000550983ED95E6CF911F910F910C94FA0853
:10130000C09304286C2F80911A2990911B29EFCF4C
:10131000CF93DF93EC018B819C81CB9630E020E072
:1013200050E040E0623079F06A810E940C098B81C4
:101330009C8130E020E040E050E16981CB96DF9174
:10134000CF910C940C0969810E940C098B819C81BE
:1013500030E020E040E050E16A81F0CFCF92DF92B0
:10136000EF92FF920F93FC01C12CB9E0DB2EBDE39D
:10137000EB2EF12CC082D182E282F382148215829C
:1013800081E090E086839783C0900028D090012868
:10139000E0900228F0900328F694E794D794C7943D
:1013A00090E04C155D056E057F0540F4F694E794DA
:1013B000D794C7949F5F9630A1F797E004600187A8
:1013C000892F8095A82FA170B0E084E0AA0FBB1FE1
:1013D0008A95E1F791629A2B80E0232B09F480E44F
:1013E000982B90870F91FF90EF90DF90CF9008950A
:1013F0000F931F93CF93DF93CDB7DEB72A97CDBF5F
:10140000DEBF8C01FC01878181110CC01086118622
:10141000128613861486158616861786108A118AF8
:1014200081E087838091E305F8019681892B809381
:10143000E30561E070E083810E94900561E070E067
:10144000F80184810E9490058091C1088460809396
:10145000C1088091C00881628093C0084091202813
:1014600050912128609122287091232800912428EE
:101470002091262830912728CE0101960E94AE099E
:1014800099858A859093C0088093C1082A96CDBF1C
:10149000DEBFDF91CF911F910F9108955F926F9200
:1014A0007F928F929F92AF92BF92CF92DF92EF92F4
:1014B000FF920F931F93CF93DF93CDB7DEB7629761
:1014C000CDBFDEBF3C010B871C872D873E87042FD5
:1014D0004F87588B698B7A8B29893A894B855C8534
:1014E0006D857E85CE0101960E94AE0959841A85CC
:1014F000D30118968C91882319F081FF18C0F894B5
:101500005092C0081093C1086296CDBFDEBFDF9134
:10151000CF911F910F91FF90EF90DF90CF90BF90F0
:10152000AF909F908F907F906F905F90089580FF15
:10153000E7CFF30182849384A484B584C12CD12C99
:101540007601B0E09401A501B601C701A0E00E94B8
:10155000B30FA9F1217030E040E050E060E070E0AE
:1015600080E090E00E94B30FE9F090E080E0B033BB
:1015700070F48B2F869586958695F0E28F9FC0013B
:101580001124805F9B4F2B2F2770820F911DFC0130
:10159000408193012B0F311DF901428BFC01208109
:1015A000287F20839401A501B601C70101E00E94B4
:1015B000980F49015A016B017C01BF5FC3CFD30172
:1015C0001E968D909D90AD90BC905197C12CD12CC2
:1015D0007601B0E29401A501B601C701A0E00E9426
:1015E000B30F09F48DCF217030E040E050E060E0AF
:1015F00070E080E090E00E94B30FE9F090E080E0BE
:10160000B03370F48B2F869586958695E0E28E9F99
:10161000C0011124805F9B4F2B2F2770820F911DDB
:10162000FC01408193012B0F311DF901428BFC011C
:101630002081287F20839401A501B601C70101E024
:101640000E94980F49015A016B017C01BF5FC2CF14
:101650001F920F920FB60F9211242F933F934F9327
:101660005F936F937F938F939F93AF93BF934091BB
:101670001428509115286091162870911728809190
:101680001228909113282091102830911128420F90
:10169000531F611D711D20910E2830910F28820F5C
:1016A000931F883E23E0920730F0885E93404F5F9F
:1016B0005F4F6F4F7F4F8093122890931328409372
:1016C000142850931528609316287093172880913A
:1016D0001C2890911D28A0911E28B0911F280196CA
:1016E000A11DB11D80931C2890931D28A0931E2836
:1016F000B0931F2881E08093B60ABF91AF919F916C
:101700008F917F916F915F914F913F912F910F90AA
:101710000FBE0F901F9018951F920F920FB60F9249
:1017200011242F933F934F935F936F937F938F93E6
:101730009F93AF93BF93EF93FF9388E298E20E9449
:101740007B03FF91EF91BF91AF919F918F917F911B
:101750006F915F914F913F912F910F900FBE0F901E
:101760001F9018951F920F920FB60F9211242F936E
:101770003F934F935F936F937F938F939F93AF9319
:10178000BF93EF93FF93E0913428F0913528818146
:1017900081FD2FC0608180913A288F5F8F73909177
:1017A0003B28891741F0E0913A28F0E0E85DF74DD9
:1017B000618F80933A288091C1289091C228009728
:1017C00039F0DC01ED91FC910190F081E02D09955B
:1017D000FF91EF91BF91AF919F918F917F916F9109
:1017E0005F914F913F912F910F900FBE0F901F90DF
:1017F00018958081EDCF80E099E0ADE3B0E0809373
:10180000202890932128A0932228B0932328109277
:1018100024281092252881E090E080932628909338
:1018200027282EE635E62093C3283093C42810924B
:10183000CA2821E02093C92821E22093C52822E26A
:101840002093C72820E22093C62826E12093C828A9
:1018500010922A2810922B2848EE53E060E070E0A6
:1018600040932C2850932D2860932E2870932F2876
:101870002CE835E6209328283093292820E638E004
:1018800020933428309335282AE1209336282BE101
:101890002093372820E42093382810923A28109279
:1018A0003B2810923C2810923D2826E220933E28A7
:1018B00010923F28109240281092C1281092C228FE
:1018C00026EA35E620930529309306291092072948
:1018D0001092082923EC38E22093092930930A2931
:1018E0002EE130E020930C2930930D292FE130E0D8
:1018F00020930E2930930F2940E856E968E970E0FB
:101900004093102950931129609312297093132941
:101910001092142910921529809316299093172953
:101920008DEC9CECACECBDE380935A2990935B2941
:10193000A0935C29B0935D2980E090E0A0E8BFE32C
:1019400080935E2990935F29A0936029B0936129C9
:1019500010926229109263291092642910926529CD
:1019600010926629109267291092682910926929AD
:1019700010926A2910926B2910926C2910926D298D
:1019800080E090E0A0E0BBE380936E2990936F2904
:10199000A0937029B093712910927E29EFE1F9E2AA
:1019A00087E399E2138214821582128211821082D7
:1019B00036968E179F07B1F7109243291092462949
:1019C00010924129109242291092532910925629BF
:1019D0001092512910925229109258291092592987
:1019E00080E48093572980E680931C2980912A29DE
:1019F000882301F185E299E280931A2990931B29AB
:101A00008091242981110FC08CE199E280932229D1
:101A10009093232988E080931F298AE080932029CE
:101A200089E0809321298FE199E28093182990938E
:101A30001929089581E080932A298CE199E2809305
:101A40002829909329298DE0809325298BE0809384
:101A500026298CE080932729CDCF88ED90E084BFA4
:101A60009093610080E094E2A4EFB0E080930028BE
:101A700090930128A0930228B09303288091020636
:101A80008660809302068091000681608093000644
:101A9000809102068F7C809302068091A0008F784F
:101AA0008093A000809102068061809302061092CC
:101AB000E20581E08093E40583E08093010A8FEFE3
:101AC00090E08093260A9093270A80E890E0809324
:101AD000380A9093390A80933A0A90933B0A80938C
:101AE0003C0A90933D0A8BE08093000A8091E505C3
:101AF00081608093E5058091E50582608093E5052E
:101B0000E0E8FAE037E02FEF90E885E031832487C2
:101B1000958780837096E03C4AE0F407B9F780E04F
:101B200094E080931A2890931B2880911A28909112
:101B30001B282FEF30E0B9010E942E0F6093182868
:101B40007093192880911A2890911B28E8EEF3E0F1
:101B5000BF010E942E0F609310287093112880916E
:101B60001A2890911B28BF010E942E0F80930E28E7
:101B700090930F282093BC0A3093BD0A8091B50A38
:101B800081608093B50A84E08093B00A8091B00AA6
:101B900081608093B00A789461E070E08CE10E94EB
:101BA000330461E070E08CE10E94930461E070E036
:101BB0008DE10E94330461E070E08DE10E949304A6
:101BC00061E070E083E20E94330461E070E083E250
:101BD0000E94930461E070E08EE10E94330461E0B2
:101BE00070E08EE10E94930440E855E260E070E00E
:101BF00088E298E20E94E40889ED95E60E94FA08DE
:101C000089EE95E60E94ED0861E070E087E00E94B1
:101C1000330461E070E088E00E94330461E070E02A
:101C200089E00E94330483ED95E60E94FA0886EF6E
:101C300095E60E94ED0870E060E084E00E943304C5
:101C400070E060E085E00E94330470E060E082E0D4
:101C50000E94330470E060E083E00E94330483ED6F
:101C600095E60E94FA088CE096E60E94ED0870E086
:101C700060E086E00E94330461E070E08AE00E9448
:101C8000330461E070E08BE00E94330461E070E0B7
:101C90008CE00E94330483ED95E60E94FA088AE105
:101CA00096E60E94ED088091092990910A29892BD6
:101CB00081F161E070E080910C290E94900561E063
:101CC00070E080910C290E94FB0480910929909179
:101CD0000A29DC01ED91FC910688F789E02D099530
:101CE0006FE085E099E20E9461078C369105E1F092
:101CF0006FE085E099E20E94610789369105A1F0C5
:101D00000E94950586E396E60E94FA080E949505D2
:101D1000FFCF8091072990910829DC01ED91FC917A
:101D20000684F785E02DDBCF6CE481E10E9400059D
:101D30006AE480E10E94000560E086E10E940005FF
:101D400069E087E10E9400058EE396E60E94FA08AA
:101D50008CEB95E60E94ED088DEC9CECACECBDE3C1
:101D600080936E2990936F29A0937029B093712965
:101D700086E596E60E94FA08C0E0D0E08091062849
:101D8000882391F082E696E60E94FA086091052881
:101D900070E081E090E00E9462096091042870E0A8
:101DA00082E090E00E94620982E00E94D6040197DE
:101DB00051F0609104286B5F6093042870E082E02A
:101DC00090E00E94620983E00E94D604019751F0DE
:101DD000609105286B5F6093052870E081E090E0DA
:101DE0000E94620984E796E60E94ED080E94680658
:101DF00061E080911A2990911B290E94880983ED46
:101E000095E60E94FA0884E796E60E94ED080E9493
:101E1000680661E080911829909119290E9488092B
:101E200083ED95E60E94FA0870E060E087E00E948A
:101E3000FB0470E060E088E00E94FB0480910628CB
:101E4000882331F082E896E60E94FA08109206286C
:101E5000209709F493CF0E94000090CFAA1BBB1BD0
:101E600051E107C0AA1FBB1FA617B70710F0A61B9A
:101E7000B70B881F991F5A95A9F780959095BC01BB
:101E8000CD010895A1E21A2EAA1BBB1BFD010DC0B6
:101E9000AA1FBB1FEE1FFF1FA217B307E407F5071A
:101EA00020F0A21BB30BE40BF50B661F771F881FF6
:101EB000991F1A9469F760957095809590959B018C
:101EC000AC01BD01CF010895052E97FB1EF40094CF
:101ED0000E947B0F57FD07D00E94420F07FC03D0E2
:101EE0004EF40C947B0F50954095309521953F4FC3
:101EF0004F4F5F4F089590958095709561957F4FF6
:101F00008F4F9F4F08950E94C50FA59F900DB49FBE
:101F1000900DA49F800D911D11240895B7FF0C947E
:101F2000830F0E94830F821B930B089597FD1094DB
:101F3000002E083098F00850232F342F452F562FAD
:101F4000672F782F892F912DF4CF1594979587952A
:101F50007795679557954795379527950A95AAF7E9
:101F60001124002D08950024A7FD00942A173005A0
:101F70004005500560057005800590050895EE0F39
:101F8000FF1F0590F491E02D0994A29FB001B39F2B
:101F9000C001A39F700D811D1124911DB29F700D72
:101FA000811D1124911D08955058BB27AA270E9416
:101FB000EC0F0C9495100E94871038F00E948E1040
:101FC00020F039F49F3F19F426F40C9484100EF499
:101FD000E095E7FB0C947E10E92F0E94A61058F3C1
:101FE000BA17620773078407950720F079F4A6F5FE
:101FF0000C94C8100EF4E0950B2EBA2FA02D0B01F7
:10200000B90190010C01CA01A0011124FF27591B3D
:1020100099F0593F50F4503E68F11A16F040A22F43
:10202000232F342F4427585FF3CF469537952795B4
:10203000A795F0405395C9F77EF41F16BA0B620BB3
:10204000730B840BBAF09150A1F0FF0FBB1F661FFA
:10205000771F881FC2F70EC0BA0F621F731F841F3D
:1020600048F4879577956795B795F7959E3F08F063
:10207000B0CF9395880F08F09927EE0F9795879525
:102080000895E89409C097FB3EF49095809570956B
:1020900061957F4F8F4F9F4F9923A9F0F92F96E9B4
:1020A000BB279395F695879577956795B795F11129
:1020B000F8CFFAF4BB0F11F460FF1BC06F5F7F4FC6
:1020C0008F4F9F4F16C0882311F096E911C07723D8
:1020D00021F09EE8872F762F05C0662371F096E8E1
:1020E000862F70E060E02AF09A95660F771F881FB0
:1020F000DAF7880F9695879597F9089597F99F676E
:1021000080E870E060E008959FEF80EC089500247F
:102110000A941616170618060906089500240A944C
:1021200012161306140605060895092E0394000CD2
:1021300011F4882352F0BB0F40F4BF2B11F460FF61
:1021400004C06F5F7F4F8F4F9F4F089557FD90588A
:10215000440F551F59F05F3F71F04795880F97FB6B
:10216000991F61F09F3F79F0879508951216130625
:102170001406551FF2CF4695F1DF08C01616170654
:102180001806991FF1CF8695710561050894089589
:10219000E894BB2766277727CB0197F908950E941B
:1021A000E2100C9495100E94871038F00E948E1057
:1021B00020F0952311F00C947E100C9484101124BF
:1021C0000C94C9100E94A61070F3959FC1F3950F4F
:1021D00050E0551F629FF001729FBB27F00DB11DAB
:1021E000639FAA27F00DB11DAA1F649F6627B00D3B
:1021F000A11D661F829F2227B00DA11D621F739F24
:10220000B00DA11D621F839FA00D611D221F749F31
:102210003327A00D611D231F849F600D211D822F78
:10222000762F6A2F11249F5750409AF0F1F088239F
:102230004AF0EE0FFF1FBB1F661F771F881F9150CC
:102240005040A9F79E3F510580F00C947E100C94ED
:10225000C9105F3FE4F3983ED4F386957795679570
:10226000B795F795E7959F5FC1F7FE2B880F911DF6
:102270009695879597F908950F931F93CF93DF93C2
:102280008230910510F482E090E0E0918129F09194
:10229000822930E020E0B0E0A0E0309799F42115E9
:1022A000310509F44AC0281B390B24303105D8F513
:1022B0008A819B816115710589F1FB01828393837A
:1022C000FE0111C0408151810281138148175907D5
:1022D000E0F04817590799F4109761F012960C93A3
:1022E000129713961C933296CF01DF91CF911F91D5
:1022F0000F9108950093812910938229F4CF21151D
:10230000310551F04217530738F0A901DB019A015A
:10231000BD01DF01F801C1CFEF01F9CF8093812921
:1023200090938229CDCFFE01E20FF31F8193919309
:102330002250310928833983D7CF20917F293091CA
:102340008029232B41F42091092830910A282093D9
:102350007F29309380292091072830910828211562
:10236000310541F42DB73EB740910B2850910C2810
:10237000241B350BE0917F29F0918029E217F307A8
:10238000A0F42E1B3F0B2817390778F0AC014E5FE5
:102390005F4F2417350748F04E0F5F1F40937F298A
:1023A00050938029819391939FCFF0E0E0E09CCF00
:1023B000CF93DF930097E9F0FC01329712821382EA
:1023C000A0918129B0918229ED0130E020E01097A1
:1023D000A1F420813181820F931F20917F293091B8
:1023E00080292817390709F061C0E0937F29F0930D
:1023F0008029DF91CF910895EA01CE17DF07E8F534
:102400004A815B819E0141155105B1F7E901EA83DB
:10241000FB8349915991C40FD51FEC17FD0761F457
:10242000808191810296840F951FE90188839983A9
:10243000828193818A839B83F0E0E0E012968D9104
:102440009C9113970097B9F52D913C911197CD016F
:102450000296820F931F20917F293091802928179F
:10246000390739F6309751F5109281291092822957
:10247000A0937F29B0938029BCCFC283D3834081AE
:102480005181840F951FC817D90761F44E5F5F4FC4
:1024900088819981480F591F408351838A819B818C
:1024A000828393832115310509F0B0CFE093812910
:1024B000F09382299ECFFD01DC01C0CF12821382EE
:0624C000D7CFF894FFCF16
:1024C60000000003000102000001010000000000FE
:1024D60000000000000000000000000000000000F6
:1024E60000000000000000000005040005060204CC
:1024F60001030001000102000102030405020303B7
:10250600050406050406070307000102020300018D
:102516000706020200050201050004010104040485
:10252600030303030303000002000003010100008C
:1025360001020202020505050503052010012040DF
:10254600041002080102010204010204081020041A
:10255600080820104020104080088001020404086A
:1025660001028040000000007B010809CB019C01AC
:102576007C01CF027E024E0AD5011F031903F8091A
:10258600110300000000C003920625031104560340
:1025960034034803E408C1056203BF0600000000D7
:1025A600E3080A095C08C3075608CF07C307C8072C
:1025B600850778077D070D0A004D6F746F727320CB
:1025C6007365742073706565642E2E2E00446F6EDD
:1025D600652100496E697469616C6973696E672E5D
:1025E6002E2E004C45442053657475702E2E2E00F9
:1025F6004C696E652053656E736F727320536574F4
:1026060075702E2E2E00436C61772053657475709D
:102616002E2E2E004C534D3644533320494D552013
:10262600696E697469616C697A6174696F6E20009C
:102636004641494C45442E00636F6D706C65746568
:1026460064207375636365737366756C6C792E00AD
:10265600496E697469616C6973656400466F6C6C78
:102666006F77696E67206C696E652E2E2E004D6F32
:10267600746F72732072756E2E2E2E00466F6C6C00
:102686006F77696E67206C696E6520646F6E650092
:0E2696000024F4006464010000832980000029
:0400000300000200F7
:00000001FF
